:020000040800F2
:10000000E80D0020B501000823330008932E0008F6
:100010002133000857160008293F0008000000009F
:10002000000000000000000000000000293B000864
:10003000DD1A000800000000D53A00082B3B00083C
:10004000CF010008CF010008CF010008CF01000850
:10005000CF010008CF010008CF010008CF01000840
:10006000CF010008CF010008CF010008CF01000830
:10007000CF010008CF010008CF010008CF01000820
:10008000CF010008CF010008CF010008CF01000810
:10009000CF010008CF010008CF010008CF01000800
:1000A000CF010008913B0008CF010008CF010008F4
:1000B000CF010008CF010008CF010008CF010008E0
:1000C000CF010008CF010008CF010008CF010008D0
:1000D000CF010008113F00081D3F0008CF010008B4
:1000E000CF010008CF010008CF01000800F002F89E
:1000F00000F050F80AA090E8000C82448344AAF172
:100100000107DA4501D100F045F8AFF2090EBAE86F
:100110000F0013F0010F18BFFB1A43F0010318473B
:10012000704F0000904F0000103A24BF78C878C18B
:10013000FAD8520724BF30C830C144BF04680C60ED
:10014000704700000023002400250026103A28BF35
:1001500078C1FBD8520728BF30C148BF0B60704739
:10016000662904F04581642900F0828000207047F0
:100170001FB500F019FD04000020002103F06AFF04
:10018000401C60600020002103F04EFFE0601FBDB6
:1001900010B510BD00F054FE1146FFF7E9FF03F063
:1001A000EFFE00F080FE03B4FFF7F2FF03BC00F0A7
:1001B00083FE00000948804709480047FEE7FEE744
:1001C000FEE7FEE7FEE7FEE7FEE7FEE7FEE7FEE707
:1001D00004480549054A064B704700008D3B00085E
:1001E000ED000008E8070020E80D0020E8090020E5
:1001F000E80900200FB41CB5084B06AA7B446946E9
:100200000090059800F073FC04460020694600F059
:1002100081FC20461CBC5DF814FB000015090000A1
:1002200070B5044685690068C10601D5302600E036
:100230002026C00707D070BDD4E901213046904781
:10024000206A401C20626D1EF6D570BD70B5044654
:1002500085690078C00707D170BDD4E9012120204D
:100260009047206A401C20626D1EF6D570BD0000CC
:100270002DE9F0410646002410687529314616A57F
:1002800010D0AFF30080002802DA404213A507E047
:1002900031688A0701D512A502E0490704D511A5E6
:1002A000012401E0AFF3008000210A2206F12407B7
:1002B00009E0B0FBF2FCB0FBF2F302FB1C003030B3
:1002C00078541846491C0028F3D123462A46304664
:1002D000BDE8F04100F09EB9000000002D000000D4
:1002E0002B000000200000002DE9F05F8946044645
:1002F0004FF0000ADFF874B1FB44C0F820A020469C
:10030000E1688847002874D0252806D0D4E9012167
:100310009047206A401C2062F1E700265F46204695
:10032000E16888472028054607DB312D05D278197A
:1003300010F8200C08B10643F1E7B00701D526F00C
:100340000406C4F81CA00027C4F818A02A2D09D060
:10035000284603F00EFE38B304EB8708303DC8F89A
:10036000185019E059F8041B204604EB87029161EC
:10037000E1688847012F054618D1E069002820DA96
:1003800026F020061DE0D8F8180000EB800005EBF1
:1003900040003038C8F818002046E1688847054614
:1003A00003F0E7FD0028EED1012F0AD02E2D08D151
:1003B0002046E16888477F1C0546022F46F020064C
:1003C000C4DBA069002803DA404246F00106A061C0
:1003D000F00701D026F010066C2D0BD0682D09D047
:1003E0004C2D39D06A2D35D0742D35D07A2D33D09F
:1003F00016E038E0E1682F4620468847B8420546B7
:1004000009D16C2F26D04FF48060E1680643204666
:100410008847054604E06C2F1AD04FF480700643DD
:100420000DB3A5F14100192802D8203546F4006625
:100430004A462946204626604E46FFF791FE80B187
:1004400001280BD0F61D26F0070000F1080956E739
:100450004020E4E78020D8E70020D6E706F1040931
:100460004DE7284652E7206ABDE8F09FEF4C0000B8
:1004700070B5064600F0CAF80468054630460A2200
:10048000002100F04CFB2C6070BD30B505460B46DA
:100490002A4613F8014B12F8010B08B1A042F8D01C
:1004A0001CB1002802D06D1CF1E7284630BD40EA9F
:1004B0000103024630B59B0710D14FF0013400E034
:1004C00008C208C91D1B9D4315EAC41FF8D013F0CC
:1004D000FF0102F8011B0DD01B0AF8E711F8013BE0
:1004E000002B02F8013B05D011F8013B002B02F86C
:1004F000013BF3D130BD10B5431C02E010F8011BE5
:1005000071B18107FAD14FF0013202C88C1A8C43C5
:1005100014EAC211F9D0C01A0A0603D0C01E10BDD9
:10052000C01A10BD0A0401D0801E10BD0902FCD003
:10053000401E10BD4FF0000200B51346944696468B
:10054000203922BFA0E80C50A0E80C50B1F12001E6
:10055000BFF4F7AF090728BFA0E80C5048BF0CC094
:100560005DF804EB890028BF40F8042B08BF7047F2
:1005700048BF20F8022B11F0804F18BF00F8012B64
:10058000704700004FF0013C50F8042B51F8043B39
:100590009A4221D1A2EB0C03934313EACC1317D157
:1005A00050F8042B51F8043B9A4215D1A2EB0C03EE
:1005B000934313EACC130BD150F8042B51F8043BAE
:1005C0009A4209D1A2EB0C03934313EACC13DBD07C
:1005D0004FF00000704700BFD01A01BAB1FA81F1A4
:1005E00001F0180122FA01F0CB40C1F12001DBB289
:1005F000C0B2C01A2CFA01F3D11A914311EAC31107
:10060000E6D1704770477047704700000048704758
:10061000840700202DE9F0470D469946924604468E
:1006200000F124080168880604D5E06921F0100172
:10063000216000E00120A84201DD471B00E0002707
:10064000A1697A1902EB0900081AA0612078C00696
:1006500002D42046FFF7E4FD002608E0D4E901219A
:100660001AF806009047206A401C761C20624E450E
:10067000F4DB2078C0060AD52046FFF7D1FD06E05E
:10068000D4E9012130209047206A401C2062381EA6
:10069000A7F10107F4DC07E0D4E9012118F805000F
:1006A0009047206A401C2062281EA5F10105F3DC5A
:1006B0002046FFF7CBFD2078000602D50220BDE8DA
:1006C000F0870120FBE770472DE9FF4F0C461E46DF
:1006D0004FF0FF378BB0D2E90001DDF860800A905F
:1006E0008A46C1F30A5505B93D46002108464FF038
:1006F0000000BAF1000F00F4400005DA00EB8000C2
:100700004FF4400101EA50004FEA9059B9F1010F4E
:1007100000DDB9460A9850EA4A000ED044F610505F
:10072000A5F2FF3545432F14B8F1000F1ED07542D6
:10073000291E1EDDC9F100021CE0B8F1010F4FF0C7
:10074000000001D0302103E0F24305E02154401CB9
:10075000B042FBDB30460022002121540B99C1F846
:100760000880C1E900200FB0BDE8F08FBD1B6D1CF3
:10077000DEE74A4600DA694206A800F0EFFA06AB67
:1007800093E8070003AB83E8070050460A9900F09E
:100790009AFB8DE80700A0F500501F3800900398E1
:1007A000002D0ADD42F21F014A460844002303A936
:1007B0000390684600F003FE09E0A0F500504A46A9
:1007C0001F38002303A90390684600F00DFE8DE852
:1007D00007000004000C03D04FF0FF30410800E098
:1007E0001046B8F1000F03D00022009215461EE01B
:1007F000751E05D400F0DCF9303262556D1EF9D556
:10080000B3460122084302D000227F1C04E0207876
:10081000302801D100227F1E002A099784D01DE0D4
:10082000112D07DA00F0C4F9303262556D1C50EA20
:100830000102F5D1084302D00098C8B10EE00021B2
:10084000681E05E0235C625C63542254401E491C10
:100850008142F7DBAB46A81B401E0990002004F83C
:100860000B000B98099AC0F80880C0E9002B7AE7C2
:1008700011264FF0000857E72DE9F04F884604464F
:10088000D21D22F0070191B0D1E90001CDE90A01A2
:1008900003F04BFB02460B98C00F01D02D2007E060
:1008A0002068810701D52B2002E0202101EAC00049
:1008B000032A099001D0072A05DB0346414620465A
:1008C00000F0BCF90BE12078800601D5E06900E07A
:1008D0000620B8F1650F814606D0B8F1660F18D032
:1008E000B8F1670F70D131E00020B9F1110F00901D
:1008F00001DB112301E009F101030AAA01A90CA8F7
:10090000FFF7E2FEDDE90C70002609F101058346E0
:1009100047E001204B4600904FF000470AAA01A98A
:100920000CA8FFF7D1FEDDE90DB00C995D4600265D
:1009300010B909F101000D18B9EB050003D4C0F19D
:10094000FF3609F10105A5EB09002BE0B9F1010F14
:1009500001DA4FF001090020B9F1110F009048466B
:1009600001DD112300E003460AAA01A90CA8FFF744
:10097000ABFEDDE90C704D4600268346207800076B
:100980000AD4AB4500DA5D4601A8012D04DD41190A
:1009900011F8011C302907D04F4502DA17F1040F76
:1009A00004DA012082460FE06D1EEEE7002F02DC24
:1009B000ED1B3E4403E0781CA84200DD7D1CB81B03
:1009C00000F1010A4FF000472078000703D4AA4540
:1009D00001DB4FF0FF3A0021B7F1004F0DF1430862
:1009E0008DF8431024D002202B23002F01DA7F4200
:1009F0002D230A21021EA0F1010000DC5FB197FB4C
:100A0000F1FC97FBF1F201FB1C7C17460CF1300C5A
:100A100008F801CDEEE7A8F101000370218809056F
:100A200001D5452100E06521A0F1010800F8011C75
:100A300009980FA9A1EB0807FF1D00B1012041197A
:100A400001EBEA70A1693844081A401EA0612078C1
:100A5000C00602D42046FFF7E3FB099828B1D4E989
:100A600001219047206A401C20622078C00622D5D0
:100A70002046FFF7D5FB1EE0002E04DBB34502DD68
:100A800001A8805D00E03020D4E901219047206A70
:100A9000401C2062761CAAF101005FEA000A0AD11C
:100AA00000F082F8C0680168405CD4E901219047F9
:100AB000206A401C2062281EA5F10105DCDC07E04D
:100AC000D4E9012118F8010B9047206A401C2062EC
:100AD000381EA7F10107F3DC2046FFF7B7FB032020
:100AE00011B041E601694A1C02610878704700B5FF
:100AF0008FB0CDE901310021059105497944CDE957
:100B0000031011466846FFF7EFFB0FB000BD000071
:100B1000E5FFFFFF0A6802F8010B0A6070472DE944
:100B2000F04791460F4680460446002614F8015BC4
:100B30002DB100F031F80068405DC007F6D12B2DD3
:100B400002D02D2D18D0641E4A463946204600F0AA
:100B5000B5F827B13968A14201D1C7F800804FF03C
:100B6000020471050BD54042002803DDFFF74EFD5E
:100B70000460A007BDE8F08746F48066E4E700283B
:100B8000F8DAFFF743FD04606FF00040F2E7000081
:100B9000004870478407002010B500F005F8001DDC
:100BA00010BD00BFB134000000487047A40700200A
:100BB00030B5B0F10A024FEA900E71F100034EEA2F
:100BC000817EB0EB0E0061EB91014FEA101E4EEA00
:100BD000017E10EB0E0041EB11114FEA102E4EEA90
:100BE000016E10EB0E0041EB11214FEA104E4EEA60
:100BF000014E10EB0E0041EB1141401841F1000194
:100C00004FEAD00040EA41704FEAD10110EB800575
:100C10004FEA810444EA907444EB01046D1944EBFB
:100C20000404521BA3414FF0000348BF0A3200D511
:100C300030BD401C41F1000130BD00002DE9F04104
:100C40001F46044603260168072A01F4006004DBFE
:100C500008B116A505E016A503E008B115A500E04A
:100C600015A521F010002060A069C01EA0610FB181
:100C7000401EA0612046FFF7D3FA4FB1D4E901210D
:100C800038469047206A401C2062C01C206206E063
:100C9000206AFAE7D4E9012115F8010B9047761E86
:100CA000F8D22046FFF7D2FABDE8F0814E414E005F
:100CB0006E616E00494E4600696E66002DE9F05F78
:100CC000824615468B4600270AF10104B946007892
:100CD000302801D09DB113E014F8010B01277828CA
:100CE00003D0582801D045B10AE00DB1102D07D12D
:100CF000002714F8010B102502E0082500E00A2562
:100D00000026B0460EE005FB080005FB06F10127B2
:100D10001FFA80F801EB1046B6F5803F00D3B946C4
:100D200014F8010B294600F0B0F80028EBDABBF10B
:100D3000000F05D00FB1641E00E05446CBF8004010
:100D4000B9F1000F06D0FFF761FC02210160C81E57
:100D5000BDE8F09F48EA0640FAE700002DE9F047B9
:100D6000814616468AB0354878440DC88DE80D0096
:100D700032487844801C03AC0DC884E80D0041F66D
:100D80009B300844372190FBF1F290FBF1F5A5F17F
:100D9000800501FB12041B3C02D56442012000E0E7
:100DA0000020DFF898A080460027FA44AAF1BE0A86
:100DB0000EE0E0070AD03246684607EB4701012300
:100DC0000AEB810100F010FB8DE8070064107F1C26
:100DD000002CEED1194F7F44AE3F19E0E80715D043
:100DE00007EB04100DF1180A90E80E008AE80E00D7
:100DF000C068F04201D1981908903246012306A933
:100E000003A800F0F1FA03AB83E807006D10641C3F
:100E1000002DE3D14FF0010332466946B8F1000FCF
:100E200003A802D000F0CBFA01E000F0DDFAC9E936
:100E30000001C9F808200AB0BDE8F0870C430000A3
:100E40007546FFF7A5FEAE4605006946534620F0FD
:100E50000700854618B020B5FFF7BAF9BDE8204075
:100E60004FF000064FF000074FF000084FF0000B66
:100E700021F00701AC46ACE8C009ACE8C009ACE819
:100E8000C009ACE8C0098D4670473A2800D2303816
:100E900020F02002412A01D3A2F13700884201D379
:100EA0004FF0FF30704710B50446AFF30080204686
:100EB000BDE81040FFF777B901491820ABBEFEE747
:100EC0002600020070475FEA400C08BF91F0000F57
:100ED0004FEA8C234FEAC12243EA51514FEA1C509A
:100EE00018BF00F5F0404FEA300018BF41F0004154
:100EF0005FEA6C5C00F02980BCF1FF3F08BF40F066
:100F000080407047130C06BF12044FF0100C4FF0D6
:100F1000000C130E04BF12020CF1080C130F04BFD7
:100F200012010CF1040C930F04BF92000CF1020C9F
:100F3000D30F04BF52000CF1010C11464FF0000218
:100F4000A0F11F00A0EB0C00704711F0004F08BF8C
:100F5000704731F000413FF4D5AF0B0C06BF0904D8
:100F60004FF0100C4FF0000C0B0E04BF09020CF1F7
:100F7000080C0B0F04BF09010CF1040C8B0F04BF0C
:100F800089000CF1020CCB0F04BF49000CF1010CDD
:100F9000CCF12003A0EB0C0022FA03F302FA0CF2CE
:100FA00041EA030100F10100704720F07F4C80EA24
:100FB000030023F07F47ACEB070303F57C5300F0FD
:100FC000004003F1FF032DE980494FEA154B09B4B6
:100FD0004FEA144325EA0B4E24EA03480FF2042695
:100FE00006EB132749083E785FEA320203FB0667E7
:100FF000C7F5000707FB06F64FEA54374FEAD64617
:1010000006F1020607FB066CCCF1005C4FEA1C47B8
:101010002CEA074C07FB06F40CFB06F504EB15461F
:101020004FEA961634BF00204FF000404FEAD13708
:1010300006FB07FC4FEA1C4C0CFB0BF7D21B03FB17
:101040000CF761EB07010CFB0EF7B0EB074072EBFE
:1010500017420CFB08F734BFA2EB0742B2EB074282
:1010600061EB17414FEA0C444FEA910706FB07FC7E
:101070004FEA1C4C0CFB0BF7B0EBC74072EB57323E
:1010800003FB0CF734BFA2EBC742B2EBC74261EBE4
:1010900057310CFB0EF7B0EBC70072EB57720CFB2D
:1010A00008F734BFA2EBC702B2EBC70261EB57717E
:1010B000039F4FEA816141EA921104EBCC044FEAAD
:1010C000D1374FEA826206FB07FC42EA90124FEAF0
:1010D00080604FEA1C4C0CFB0BF7D21B03FB0CF798
:1010E00061EB07010CFB0EF7B0EB074072EB174208
:1010F0000CFB08F734BFA2EB0742B2EB074261EBEF
:1011000017414FEA8C554FEA910704EB9C2406FBEC
:1011100007FC4FEA1C4C0CFB0BF7B0EBC74072EB23
:10112000573203FB0CF734BFA2EBC742B2EBC74206
:1011300061EB57310CFB0EF7B0EBC70072EB577247
:101140000CFB08F734BFA2EBC702B2EBC70261EB9E
:10115000577115EB4C254FEA816141EA92114FEA34
:1011600082624FEAD13742EA901206FB07FC44F153
:1011700000044FEA80604FEA1C4C0CFB0BF7D21BBB
:1011800003FB0CF761EB07010CFB0EF7B0EB07401C
:1011900072EB17420CFB08F734BFA2EB0742B2EB2D
:1011A000074261EB174115EB1C154FEA813141EA0B
:1011B00092414FEA823242EA90424FEA80304FEA4F
:1011C0000C7644F1000448EA03434EEA0B484FF022
:1011D000000EB2EB080C71EB030724BF62463946E0
:1011E0004EEB0E0E4FF0000B0018524149414BEBF5
:1011F0000B0BB2EB080C71EB03077BF1000B24BF68
:10120000624639464EEB0E0E4FF0000B001852416D
:1012100049414BEB0B0BB2EB080C71EB03077BF175
:10122000000B24BF624639464EEB0E0E51EA020710
:1012300018BF46F0010616EB0E7655F1000254F188
:10124000000103D5BDE88901BDE80088BDE889013A
:10125000BDE80048B619524141EB0101A3F1010379
:10126000704780807F7E7D7C7B7A79787776767513
:101270007473727171706F6E6E6D6C6C6B6A6A698B
:101280006868676666656464636362616160605F25
:101290005F5E5E5D5D5C5C5B5B5A5A59595858579E
:1012A0005756565555555454535352525251515006
:1012B00050504F4F4F4E4E4D4D4D4C4C4C4B4B4B59
:1012C0004A4A4A494949484848474747474646469F
:1012D00045454544444444434343434242424241DA
:1012E0004141002B9C4630D477002BD01CB54FEAEF
:1012F000370703B44FF010004FF01001BAF1000FA0
:1013000006D0BCF1000FDCBF40F0080040F008013F
:101310004FF000000FBCBDE810400BF1010BBBF11A
:10132000010F08BF5FEA170722BF12F1010211F196
:1013300001014FF0004143F1000300F0004043EA97
:1013400000007047F9D35708D0E746EA064613F184
:10135000400F4FEA16461FDD13F1200FDFBF164383
:101360000A46002120335B42BED0C3F1200746EA83
:10137000064602FA07F74FEA164646EA0706C3F1A1
:10138000200722FA03F201FA07F721FA03F14FF0DE
:10139000000342EA0702A7E746EA020646EA0646D3
:1013A0004FEA164646EA0106BCBF46EA0646360C38
:1013B0004FF000034FF000024FF0000194E72DE9D9
:1013C000804C9A46934670B491E8380007C831EAD9
:1013D000400C48BF34EA430C03D5FFF7E6FDFFF7A6
:1013E00080FFF0BCBDE8008C2DE9804C9A46934606
:1013F00070B491E8380007C810F0804F08BF13F0B0
:10140000804F03D100F005F8FFF76BFFF0BCBDE89B
:10141000008C20F07F4780EA030023F07F4C07EB2D
:101420000C03A3F57C5300F00040A3F1FE0392F0FF
:10143000000F00F0B38095F0000F00F077802DE9E9
:1014400001494FEA11404FEA144621EA004800FBE7
:1014500006FC24EA064708FB06F607FB08F800FB33
:1014600007F718EB06484CEB164C4FEA124B18EBFB
:1014700007484FEA15464CEB174022EA0B4E0BFB90
:1014800006FC25EA06470EFB06F607FB0EFE0BFBE5
:1014900007F71EEB064E4CEB164C4FF000061EEB0A
:1014A000074E4CEB174B18EB0B0840F1000018EB04
:1014B0000E0B58EB000840F100008F1A4FF00001AE
:1014C0003CBFC943661B14BFB5EB040C00213CBFF5
:1014D000C943F61B4FEA17444EEA8E0E27EA04452D
:1014E0004FEA1C4704FB07622CEA074C05FB07F791
:1014F0000CFB05F604FB0CFC16EB074642EB17420F
:1015000016EB0C4642EB1C421BEB060658EB0202A4
:10151000414146EA9E0601D5BDE80189B61952410E
:1015200041EB0101A3F10103BDE801894FEA144534
:101530004FEA114724EA054621EA074C05FB07F468
:1015400006FB07F70CFB06F105FB0CFC11EB074152
:1015500044EB17444FEA124711EB0C4144EB1C4497
:1015600022EA074C05FB07F206FB07F70CFB06F621
:1015700005FB0CFC16EB074642EB174216EB0C463C
:1015800042EB1C456A1854F1000148BF7047B61978
:10159000524141EB0101A3F10103704795F0000FA7
:1015A00037D04FEA11424FEA144721EA024624EAB3
:1015B000074C02FB07F106FB07F70CFB06F402FBE6
:1015C0000CFC14EB074441EB17414FEA154714EBB1
:1015D0000C4441EB1C4125EA074C02FB07F506FBD6
:1015E00007F70CFB06F602FB0CFC16EB074645EB77
:1015F000174516EB0C4645EB1C42121951F1000140
:1016000048BF7047B619524141EB0101A3F10103F4
:1016100070474FEA14454FEA114724EA054621EA8C
:10162000074C05FB07F106FB07F70CFB06F24FF032
:10163000000605FB0CFC12EB074241EB174112EBD5
:101640000C4251EB1C4148BF7047921841EB01011D
:10165000A3F101037047FEE72DE9F0473F4C002559
:1016600004F11400A77801784378827801260E30BF
:101670004FF00208012F02D0022F3BD126E08570E7
:1016800045700570354D1B352F7839443B2901D9FC
:1016900046703C390170697819443B2903D986703A
:1016A00043783C3900E0437819444170A9781144EB
:1016B000172905D9C278521CC2708278183900E007
:1016C00082781144817084F8028013E08778974211
:1016D00010D142789A420DD102788A420AD185709F
:1016E00045700570A07902F0F7F91D48A5700570E6
:1016F0001C48057020792178DFF86C901B4D0F276E
:10170000884210D90221484600F002FC40B92E75EB
:1017100017A12846FEF7CBFE6F75284601F0BAFBED
:10172000002002F0D9F9E0786178884213D90221CB
:10173000484600F0EDFB48B985F814800EA10B482F
:10174000FEF7B5FE6F75094801F0A4FBBDE8F04750
:10175000002002F0C1B9BDE8F087000000000020C1
:101760003300002032000020000C01405C07002004
:1017700022303030303122002230303030322200FE
:1017800070B5164D012200241146284600F0C5FB15
:10179000661E04E0641CE4B2012000F0ABF90121F4
:1017A000284600F0B5FB18B1642C13D2002407E0E2
:1017B000642CEFD30EE0641CE4B2012000F09AF92F
:1017C0000121284600F0A4FB10B1642CF3D301E002
:1017D000642C01D3304670BD002070BD000C014068
:1017E0002DE9F0411A4E002701220024114630460F
:1017F00000F093FB04E0641CE4B2012000F07AF9ED
:101800000121304600F084FB08B9642CF3D368064C
:10181000050E0024282000F06DF90121304600F06B
:1018200077FB01280ED145F0010504E0641CE4B209
:10183000012000F05FF90121304600F069FB08B19A
:10184000642CF3D37F1C082FCEDB2846BDE8F08143
:10185000000C01402DE9FC410D46064600F020F841
:10186000FFF78EFF00246F46FFF7BAFF3855641C60
:10187000052CF9DB012000F032F99DF800109DF8ED
:1018800001009DF803300A189DF8020003441A4431
:101890009DF804309A4201D131702870BDE8FC8176
:1018A00010B5094C00220121204600F036FB14201F
:1018B00000F015F901221146204600F02EFBBDE88C
:1018C0001040282000F016B9000C01401FB5E020A0
:1018D00000900120019003200B4C039069462046A4
:1018E00000F026FA0021902000F0C0F8002220210C
:1018F000204600F012FB00228021204600F00DFB64
:101900000A2000F0F7F81FBD0008014070B51C4E1A
:101910000546002401222021304600F0FEFA45F061
:10192000010000F081F802F061FB0025640840210D
:10193000304600F0EDFA08B144F080040122802125
:10194000304600F0EAFA012000F0D4F800228021AD
:10195000304600F0E2FA012000F0CCF86D1CEDB248
:10196000082DE3D302F052FB00222021304600F084
:10197000D4FA00224021304600F0CFFA204670BD54
:101980000008014010B504468C20FFF7BFFF00F0AF
:101990000F01000900EB800001EB4000A0718820DE
:1019A000FFF7B4FF00F00F01000900EB800001EB2E
:1019B000400020718620FFF7A9FF00F00F01000909
:1019C00000EB800001EB4000E0708420FFF79EFFF9
:1019D00000F00F01000900EB800001EB4000A07057
:1019E0008220FFF793FF00F00F01000900EB800059
:1019F00001EB400060708020FFF788FF00F07F005F
:101A000000F00F01000900EB800001EB40002070A6
:101A10008A20FFF77BFF00F00F01000900EB800038
:101A200001EB4000607110BD70B50F4E05460024FB
:101A300005F001024021304600F06FFA01228021BA
:101A4000304600F06AFA012000F054F800228021AC
:101A5000304600F062FA012000F04CF8641C6D087A
:101A6000E4B2082CE4D370BD0008014070B51A4EF2
:101A70000D46044601222021304600F04EFA204651
:101A8000FFF7D2FF5FF0000405F00102402130466D
:101A900000F043FA01228021304600F03EFA012096
:101AA00000F028F800228021304600F036FA0120AC
:101AB00000F020F8641C6D08E4B2082CE4D3002286
:101AC0002021304600F029FA3046BDE8704000225F
:101AD000402100F022BA000000080140704700B524
:101AE00002464FF47A7302E0184600F003F8521EE3
:101AF000FAD200BD00EBC000C1004FF0E020416110
:101B000000218161052101610169C903FCD504211E
:101B10000161704770B5044650E000BF00F084F8E2
:101B2000002848D128A12948FEF7AFFC002842D060
:101B300001F0F8FB042126A001F0D6FF2649421C43
:101B400000D008700878012833D1082123A001F0C3
:101B5000CBFF411C01D024490870082123A001F0CB
:101B6000C3FF411C01D024490870042123A001F0C7
:101B7000BBFF244D244E411C4FF0010401D02C70BA
:101B8000B070062121A001F0AFFF411C01D02C70E4
:101B9000707003211FA001F0A7FF411C01D02C7021
:101BA00030700B211CA001F09FFF411C01D01D498A
:101BB0000870012070BD0120FFF791FF2046641ED0
:101BC000E4B2ABD270BD000049504400CC05002007
:101BD0006D6F6465000000000500002074656D7085
:101BE0005F6D6178000000000000002068756D697D
:101BF0005F6D61780000000001000020686F757261
:101C000000000000020000201B0000206D696E75BE
:101C10007465000073656300706F7765725F73743D
:101C20006174650006000020064A108830B106493C
:101C30000B88984204D10020108070470120704723
:101C40000880FBE72E0000202A00002072B6FEE785
:101C500010B590F821100022022905D004218163DB
:101C600080F82020012010BD01680B6823F00E03CE
:101C70000B6001680B6823F001030B6090F84030A3
:101C8000C46B012101FA03F3636080F8211080F82E
:101C90002020104610BD000010B590F8211000243F
:101CA000022903D00421816301243DE001680A6810
:101CB00022F00E020A6001680A6822F001020A603E
:101CC0001A4A0168914201D1012121E0174A1432D8
:101CD000914201D110211BE0144A2832914201D1D6
:101CE000891515E0114A3C32914201D189140FE067
:101CF0000E4A5032914202D14FF4803108E00B4A33
:101D00006432914202D14FF4801101E04FF08071B2
:101D1000064A083A5160012180F82110002180F81C
:101D20002010416B01B18847204610BD08000240D9
:101D30002DE9F84FDFF8B8910024A9F1040B2346F0
:101D40000F2709F1040AABF1040EC9E00125A540F3
:101D50002A40AA427DD1674ED1F804C0ACEB0608F8
:101D6000B44532D014DCBCF1030F3AD009DCBCF12D
:101D7000000F2AD0BCF1010F1CD0BCF1020F31D1F1
:101D80001DE0BCF1110F17D0BCF1120F2AD119E0E0
:101D9000B8F5881F19D006DCB8F5803F15D0B8F526
:101DA000801F1FD111E0B8F5001F0ED0B8F5041F39
:101DB00018D10AE0CB6815E0CB681B1D12E0CB6898
:101DC00008330FE0CB680C330CE08B682BB1012B90
:101DD0004FF0080303D0456104E0042302E00561ED
:101DE00000E00023FF2A01D8064601E000F10406C6
:101DF0004FEA840501D9A5F12005D6F8008007FA3D
:101E000005FC28EA0C0803FA05F548EA0508C6F8B7
:101E100000804D68ED0062D5374DAE6946F0010691
:101E2000AE61AD6924F0030605F001050095334D60
:101E300006EB050CDCF80850A607360F07FA06F883
:101E400025EA0805DFF8B880404503D14FF00008C7
:101E500017E044E0DFF8AC80404502D14FF00108C4
:101E60000FE0DFF8A480404502D14FF0020808E0FF
:101E7000DFF89880404502D14FF0030801E04FF0B1
:101E8000040808FA06F848EA0508CCF808804D6806
:101E9000D9F80060ED024D4601D5164300E09643A7
:101EA0002E604D68DAF80060AD02554601D5164344
:101EB00000E096432E604D68DBF80060AD035D46A0
:101EC00001D5164300E096432E604D68DEF80060B1
:101ED000ED03754601D5164300E096432E60641C61
:101EE0000D682A46E5407FF431AFBDE8F88F000069
:101EF00008040140000011100010024000000140E1
:101F000000080140000C0140001001400014014095
:101F10008068084000D0012070470AB10161704715
:101F20000904FBE701488068704700003800002082
:101F300002488168027811448160704738000020AF
:101F4000074810B5016841F010010160032000F05E
:101F500075F80F2000F006F800F024F8002010BDFE
:101F60000020024070B50D4D04464FF47A71287878
:101F7000B1FBF0F00A490968B1FBF0F000F0DCFABF
:101F800048B9102C07D200222146501E00F036F826
:101F900000206C6070BD012070BD00003800002082
:101FA000440000200C4808B5816941F001018161BD
:101FB000816901F001010091C16941F08051C16165
:101FC000C06900F0805000900448416821F0E06151
:101FD00041F00071416008BD001002400000014066
:101FE000002809DB00F01F02012191404009800018
:101FF00000F1E020C0F8001170470000F0B40E4B73
:102000001B680C46C3F30223C3F10705042D00D956
:102010000425191D072901D2002300E0DB1E01263B
:1020200006FA05F1491E214099409E40761E164051
:102030003143F0BC01F08DBF0CED00E0064900F02B
:10204000070208684FF6FF03184040EA0220034ADF
:1020500010430860704700000CED00E00000FA0536
:102060002DE9F0470F46050061D0434E306800F07F
:102070000700B84209D2306820F0070038433060CA
:10208000306800F00700B84251D128683B4C810706
:1020900012D5400703D5606840F4E060606028789E
:1020A000000703D5606840F4605060606068A9680C
:1020B00020F0F000084360602878C00728D06868E6
:1020C000012810D02168022810D0890700292EDAB3
:1020D000616821F0030101436160FFF723FF80463F
:1020E00041F288390DE021688903EFE78901EDE7C6
:1020F000FFF718FFA0EB0801494502D90320BDE80E
:10210000F0876068696800F00C00B0EB810FEFD1D8
:10211000306800F00700B8420BD9306820F00700A3
:1021200038433060306800F00700B84201D0012029
:10213000E5E72878400705D56068E96820F4E060A5
:10214000084360602878000706D56068296920F494
:10215000605040EAC100606000F038F86168084AE9
:10216000C1F30311515CC840064908600648006885
:10217000FFF7F8FE0020C2E70020024000100240F6
:10218000D34F0008440000203C00002004480549CB
:1021900000684968044AC1F30221515CC840704795
:1021A0004400002000100240E34F000804480549A5
:1021B00000684968044AC1F3C221515CC8407047B5
:1021C0004400002000100240E34F00080E4A51680E
:1021D0000E4801F00C03042B11D0082B0FD10C4832
:1021E000C1F38343C903C05C0AD55168084AC1F3EF
:1021F0004041921E515C054A5043B0FBF1F07047DC
:1022000004494843704700000010024000127A0061
:10221000C34F000800093D002DE9F84F040070D0BD
:102220002078C04DC00749D06868C0F381000128FC
:1022300007D06868C0F38100022809D16868C0032C
:1022400006D52868800339D560680028E7D035E0D6
:102250006068B0F5803F0BD010B1B0F5A02F11D061
:10226000286820F480302860286820F4802002E06C
:10227000286840F480302860606890B1FFF752FE13
:1022800006460AE0286840F480202860F0E700BF96
:10229000FFF748FE801B642873D828688003F7D5B1
:1022A0000CE0FFF73FFE064605E000BFFFF73AFEF1
:1022B000801B6428F0D828688003F7D420789A4ED1
:1022C00080074FF001094FF0000839D5686810F019
:1022D0000C0F07D06868C0F38100022809D1686834
:1022E000C00306D42868800714D52069012808D1C6
:1022F00010E02069B0B1C6F80090FFF713FE074662
:1023000005E00AE1FFF70EFEC01B0228C4D82868CA
:102310008007F7D52868616920F0F80040EAC1001D
:1023200028600DE0C6F80080FFF7FCFD074604E0DA
:10233000FFF7F8FDC01B022823D828688007F7D4D0
:10234000207800072CD57948A169D9B1C0F8009050
:10235000FFF7E8FD074604E0FFF7E4FDC01B022895
:102360000FD8686A8007F7D571484FF4FA510068B2
:10237000B0FBF1F0009000BF0098411E0091FAD22E
:102380000EE080E0C0F80080FFF7CCFD074604E0D7
:10239000FFF7C8FDC01B022875D8686A8007F7D40C
:1023A0002078400760D5E8690027C00008D4E869B4
:1023B00040F08050E861E869012700F0805000900B
:1023C0005C480168C90513D40168834641F48071F3
:1023D0000160FFF7A7FD824606E000BFFFF7A2FD00
:1023E000A0EB0A0064284ED8DBF80000C005F5D544
:1023F000E06801280AD008B1052813D0286A20F027
:1024000001002862286A20F0040002E0286A40F0F7
:1024100001002862E06841F2883B98B1FFF782FD35
:1024200082460BE0286A40F004002862EEE700BF15
:10243000FFF778FDA0EB0A0159455AD8286A8007B2
:10244000F6D50CE0FFF76EFD824605E0FFF76AFD6A
:10245000A0EB0A0159454CD8286A8007F6D41FB171
:10246000E86920F08050E861E06988B36968C1F3E9
:102470008101022944D00228C6F8608004D0FFF709
:1024800051FD044638E034E0FFF74CFD074604E018
:10249000FFF748FDC01B02282BD828688001F7D41D
:1024A000206AB0F5803F05D16868A16820F400304B
:1024B00008436860D4E908010843696821F474118D
:1024C00008436860C6F86090FFF72CFD044606E0FC
:1024D00025E000BFFFF726FD001B022809D8286869
:1024E0008001F7D51BE000BFFFF71CFD001B022891
:1024F00002D90320BDE8F88F28688001F4D40EE0EB
:102500000128F7D06868226A00F48031914204D132
:10251000616A00F47010884201D00120EAE70020CF
:10252000E8E70000001002400000424280044242FE
:10253000440000200070004010B5401EB0F1807FC4
:1025400001D3012010BD4FF0E02460610F2160171E
:1025500001F0FFFC0020A06107202061002010BDD9
:102560007047704770B590F83C20012A26D00124AE
:1025700080F83C40022280F83D2003685A689D683C
:1025800022F070060A6832435A600D4B02689A4284
:1025900008D0B2F1804F05D00A4B9A4202D00A4BC4
:1025A0009A4204D1496825F080031943916080F86C
:1025B0003D40002180F83C10084670BD022070BDEF
:1025C000002C0140000400400008004010B5040049
:1025D00003D094F83D0010B107E0012010BD0020A9
:1025E00084F83C00204600F01FF8022084F83D00EB
:1025F000211D206801F0D2FA012084F8460084F8F9
:102600003E0084F83F0084F8400084F8410084F8DC
:10261000420084F8430084F8440084F8450084F8BC
:102620003D00002010BD000008B500680B4988423D
:1026300012D10B48816941F40061816180690022F7
:1026400000F40060009011461920FFF7D7FCBDE8A8
:1026500008401920FFF7C4BC08BD0000002C014051
:102660000010024090F83D10012901D00120704770
:10267000022180F83D100168CA6842F00102CA6078
:1026800000680B49884208D0B0F1804F05D0094955
:10269000884202D00849884204D1816801F00701CC
:1026A000062903D0016841F0010101600020704754
:1026B000002C0140000400400008004070B50446B2
:1026C00090F83C000025012817D0012684F83C60D2
:1026D000022084F83D002068826822F0770222F40C
:1026E0007F4282600868502838D00DDC20284FD007
:1026F00005DC90B3102811D14AE0022070BD3028CB
:1027000046D040280AD13BE060282FD070280DD059
:10271000B0F5805F03D0B0F5005F12D0012584F8DA
:102720003D60002084F83C00284670BDCB68D1E9AC
:102730000121206801F06EFA2068816841F077017C
:1027400009E0CB68D1E90121206801F063FA206833
:10275000816841F480418160E1E719E0CA68496815
:10276000206801F069FA5021206806E0CA684968CB
:10277000206801F072FA6021206801F055FACEE776
:10278000CA684968206801F057FA40212068F4E7D8
:10279000226801461046F0E770472DE9F0410446F3
:1027A0000068C66805694FF00007A90713D5B1078F
:1027B00011D5F91E0161012020772068806980070A
:1027C000204602D0FFF7E8FF04E000F07EF8204644
:1027D00000F07CF82777680716D5700714D52168B4
:1027E0006FF004000861022020772068806910F4EF
:1027F000407F204602D0FFF7CFFF04E000F065F8ED
:10280000204600F063F82777280715D5300713D541
:1028100021686FF008000861042020772068C069F3
:102820008007204602D0FFF7B7FF04E000F04DF824
:10283000204600F04BF82777E80616D5F00614D5A9
:1028400021686FF010000861082020772068C069B7
:1028500010F4407F204602D0FFF79EFF04E000F016
:1028600034F8204600F032F82777E80708D0F00760
:1028700006D021686FF001000861204600F028F8BA
:10288000280608D5300606D521686FF0800008615B
:102890002046FFF765FE680608D5700606D5216854
:1028A0006FF040000861204600F05CF8A8060AD5E9
:1028B000B00608D521686FF0200008612046BDE809
:1028C000F041FFF74EBEBDE8F08170477047000051
:1028D00070B500681F4988423BD11F4E8114002506
:1028E0003046FFF715FB1D4C711420703046FFF782
:1028F0000FFBE0704FF480413046FFF709FBA071F9
:102900004FF400413046FFF703FB6072B1151448E5
:10291000FFF7FEFA2073012205EB450108198378C1
:1029200023B1012B06D0022B0FD108E0615C61B905
:1029300082700AE0615C41B90221817005E0615C4E
:10294000012902D10021817042706D1CEDB2052D6C
:10295000E2D370BD002C0140000C01407207002042
:10296000000801407047704770470000F8B50168E3
:1029700004460868CA684B6910F00F0F4FF0000555
:1029800059D003F0010602F49077374365D0C107B0
:1029900005D0D10503D5616C41F0010161644107A7
:1029A00005D5D90703D0616C41F00201616481074C
:1029B00005D5D90703D0616C41F0040161640107BA
:1029C00007D502F02001314303D0616C41F00801CA
:1029D0006164616C00293AD0800604D5900602D566
:1029E000204601F084F920684069616CC0F38010D2
:1029F000090700D460B3204601F052F9206840690D
:102A0000400621D52068143050E8001F21F0400115
:102A100040E80012002AF5D1E06BA8B16D4941638E
:102A2000E06BFFF739F9002811D0E06B416B01B082
:102A3000BDE8F040084783060FD593060DD5204624
:102A4000BDE8F84001F053B92046FFF78DFFF8BD0F
:102A50002046FFF789FF6564F8BD266B2023012E11
:102A60007CD1C6067AD5D60678D508684868009025
:102A700048694FF00206400640D5E16B086840689F
:102A80000004000CE8D0A28D8242E5D9E085886977
:102A900020282DD020680C3050E8001F21F48071D0
:102AA00040E80012002AF5D12068143050E8001FD9
:102AB00021F0010140E80012002AF5D1206814300D
:102AC00050E8001F21F0400140E80012002AF5D133
:102AD00084F84230256320680C3050E8001F21F054
:102AE000100140E80012002AF5D1E06BFFF7B0F8C2
:102AF0006663A08DE18D401A81B22AE0A08DE18D40
:102B0000401A81B2E08D0028A6D00029A4D0226806
:102B10000C3252E8000F20F4907042E80007002FBA
:102B2000F5D12068143050E8002F22F0010240E86F
:102B30000027002FF5D184F84230256320680C303F
:102B400050E8002F22F0100240E80023002BF5D1BE
:102B500066632046FFF707FFF8BDFFE705062BD5A4
:102B6000150629D594F841002128F5D1A068B0F5C3
:102B7000805F01D12069B0B1206A411C21622168C7
:102B800000784860E08C401E0004000CE084E3D133
:102B90002068C16821F08001C1602068C16841F0EF
:102BA0004001C160D8E7206A0088C0F3080048608F
:102BB000206A801C2062E5E74006CDD55006CBD5C3
:102BC000CA68204622F04002CA6084F8413000F012
:102BD0005FF9C1E7913C000870B5040004D094F897
:102BE0004100002510B106E0012070BD84F840507E
:102BF000204600F023F8242084F841002068C168B2
:102C000021F40051C160204601F0D2F8206801692A
:102C100021F4904101612068416921F02A0141615C
:102C20002068C16841F40051C1606564202084F8C7
:102C3000410084F842006563002070BDF0B585B0A6
:102C40000024009401940294039403683F4F0220EF
:102C50003F4903223F4D4602BB4225D18B6943F4D5
:102C600080438B618B6903F4804304938B6943F049
:102C700004038B618969039201F00401049101024C
:102C8000CDE9001069462846FFF752F8CDE9006407
:102C9000694628460294FFF74BF80022114625208A
:102CA000FFF7ACF9252028E02B4FBB4229D1CB6997
:102CB00043F40033CB61CB6903F4003304938B6995
:102CC00043F004038B618969039201F004010491CC
:102CD0000421CDE9001069462846FFF729F80820AD
:102CE000CDE90004694628460294FFF721F8002246
:102CF00011462620FFF782F92620FFF771F905B06B
:102D0000F0BD164DAB42FAD1CB6943F48023CB61C1
:102D1000CB6903F4802304938B6943F008038B6130
:102D200089690F4D01F00801CDE90321CDE900606B
:102D300069462846FEF7FCFFE814CDE90004694621
:102D400028460294FEF7F4FFD9E70000003801405E
:102D500000100240000801400044004000480040CC
:102D6000000C014090F84230202B01D00220704727
:102D700021B11AB10023036301F076B80120704736
:102D800070B5054600681449144C88420FD1144AA6
:102D9000618820785054491C6180012221461148E5
:102DA000FFF7E0FF6088C82801D3002060800E494B
:102DB000286888420ED10A4AA088C8326178115426
:102DC000401CA080BDE8704004490122491C07480E
:102DD000FFF7C8BF70BD0000003801402C00002084
:102DE000CC050020F4000020004400403C010020FD
:102DF0002DE9F843044690F84100984616460D46E2
:102E0000202802D00220BDE8F88385B17EB10020E1
:102E10006064212084F84100FFF784F8A68481468D
:102E2000E684A0682027B0F5805F02D003E001208F
:102E3000E9E7206910B12E4600250EE000260CE0DF
:102E40008021204601F02BF8A8B9C6B116F8010B75
:102E500021684860E08C401EE084E08C4B464FF0D7
:102E60000002CDF800800028EAD14FF04001204652
:102E700001F015F840B184F841700320C3E735F83C
:102E8000020BC0F30800E3E784F841700020BAE7C2
:102E90007047FEE710B50446417D132000F012F89C
:102EA0000A20FEF71CFE217D072000F00BF82146CA
:102EB000022000F03BF8BDE810404FF47A70FEF7B6
:102EC0000EBE00001CB5184B0728D3E90123CDE93D
:102ED00000238DF8010013D0192811D022280FD01B
:102EE00023280DD001228DF802208DF803109DF8C3
:102EF0000020491C104408448DF8040005210FE00F
:102F000002228DF8022000228DF803209DF8002077
:102F10008DF804101044801C08448DF8050006212B
:102F2000684600F0ADFE1CBDAC4F000870B58EB019
:102F30000D46064630216C4601A8FDF7FBFA1948FC
:102F4000006800902846FDF7D6FA401D8DF8020073
:102F50008DF80360042003E02154401CC0B26D1CB6
:102F600029780029F8D12A212154401CC0B23F21E0
:102F70002154401CC0B22154401CC0B22154401CFA
:102F8000C1B2002005E0235C625C401C1A4462541C
:102F9000C0B28842F7D3491CC9B2684600F070FE3F
:102FA0000EB070BDAC4F00080148FFF75BBB0000DE
:102FB000AC0000202DE9F047604E614F614D707804
:102FC000002401281DD03946307991F800C02946E7
:102FD0000128097822D05D4896F80780DFF868A1BB
:102FE0008778437802784FF00109B8F1010F22D0B9
:102FF00096F80A80B8F1010F4AD0717B012974D08C
:1030000076E000F08FF93878012805D0401C387040
:103010002C707470BDE8F0873C70F9E7687830B9BF
:10302000BCF1010F03D1022903D0491C297034716E
:10303000F0E72C70FBE76D7815B1012D24D025E069
:1030400021B101290CD0022914D01FE0BCF1010FDD
:103050001CD1172F02D27F1C877017E0847015E0F7
:10306000BCF1010F12D13B2B02D25B1C43700DE06F
:1030700044700BE0BCF1010F08D13B2A02D2521C74
:10308000027003E0047001E08AF80090F471C1E777
:103090006D7815B1012D24D025E029B13B250129FA
:1030A0000CD0022913D01EE0BCF1010F1BD117B1C7
:1030B0007F1E877017E01721817014E0BCF1010FAB
:1030C00011D113B15B1E43700DE045700BE0BCF1F4
:1030D000010F08D112B1521E027004E0057002E027
:1030E00003E08AF80040B47294E7BCF1010F04D009
:1030F00074703471F471B4721DE0697831B1DFF825
:1031000050C0012905D002290CD014E085F80190A7
:1031100011E01048877043700270022068708CF8CC
:10312000009008E08470447004708CF800406C706B
:103130008AF800402C7074736CE70000720700205E
:1031400005000020320000200600002022000020A0
:10315000020000201B000020F0B585B000242948A3
:103160000094019402940394816941F020018161EB
:10317000816901F020010491816941F004018161BC
:10318000816901F004010491816941F008018161C4
:1031900080691D4F00F008000490002240F2813148
:1031A0003846FEF7BAFE40F20130009001AA112025
:1031B000022582E8310069463846FEF7B9FDCDE9BF
:1031C0000054694638460294FEF7B2FD4FF4704051
:1031D00001268DE8510069463846FEF7A9FDE80151
:1031E0008DE8510069460948FEF7A2FD8020CDE92F
:1031F000000669463846CDE90245FEF799FD05B05F
:10320000F0BD000000100240000C01400008014029
:1032100010B586B0002417480094019402940394DA
:1032200004941349059401604721C0E9011442F256
:103230000F71C0E9031444618461FFF7C7F908B155
:10324000FEF704FD4FF48050009069460948FFF7EF
:1032500035FA08B1FEF7FAFC049404A90548059470
:10326000FFF780F9002801D0FEF7F0FC06B010BD92
:10327000002C0140AC0000200C4810B50A49016048
:103280004FF4E1314160002181600C22C160C0E94E
:1032900004128161C161FFF79FFC002803D0BDE8E3
:1032A0001040FEF7D3BC10BD00380140F4000020F0
:1032B0000C4810B50A4901604FF496514160002155
:1032C00081600C22C160C0E904128161C161FFF715
:1032D00083FC002803D0BDE81040FEF7B7BC10BD4A
:1032E000004400403C0100200C4810B50A49016030
:1032F0004FF416514160002181600C22C160C0E989
:1033000004128161C161FFF767FC002803D0BDE8AA
:103310001040FEF79BBC10BD004800408401002017
:10332000FEE7FEE710B50021074C0A46002004EB3B
:10333000C1131A54401CC0B28028FAD3491CC9B228
:103340000829F3D310BD0000CC010020F0B50B44D8
:1033500024E0044685181DE07F2C19D8002917DBCE
:103360003F2915DCCE1701EB56764FEAE60C0D4FE0
:1033700026F0070607EBCC172744A1EB060E97F8BB
:1033800000C0012606FA0EF62CEA060C87F800C0EB
:10339000641C24B2A542DFDC491C09B28B42D8DC94
:1033A000F0BD0000CC01002010B500204FF47A726F
:1033B0000021491C9142FCD3401C9042F8D30120CB
:1033C00000F0B4F9BDE81040012000F0B7B970B5C5
:1033D00000240646802525FA04F0304000D0012064
:1033E00000F0ACF9012000F0A1F9002000F09EF9F6
:1033F000641CE4B2082CEED3012000F097F9BDE87C
:103400007040002000F092B910B5012000F096F94C
:10341000012000F08BF9002000F090F9BDE8104089
:10342000002000F083B910B5002000F087F90120DA
:1034300000F07CF9BDE81040012000F07FB910B524
:10344000FFF7B2FFAE2000F081F9D52000F07EF941
:10345000802000F07BF9A82000F078F93F2000F0F0
:1034600075F9D32000F072F9002000F06FF94020C8
:1034700000F06CF9A12000F069F9C82000F066F9AD
:10348000DA2000F063F9122000F060F9812000F0EA
:103490005DF9CF2000F05AF9D92000F057F9F1205A
:1034A00000F054F9DB2000F051F9302000F04EF923
:1034B000A42000F04BF9A62000F048F98D2000F080
:1034C00045F9142000F042F9AF2000F03FF9FFF772
:1034D00029FFBDE8104000F015B90246012000E0C8
:1034E0005043491EFCD2704710B50C4640F0B00066
:1034F00000F02CF9102040EA141000F027F904F035
:103500000F00BDE8104000F021B9000008B5082BFD
:103510000DD0062B0AD10A4B02EB420203EB42020A
:10352000C03A00920823062200F054F808BD054B6B
:1035300003EB0212A2F50072102300920822F3E7B7
:10354000E4490008F44300082DE9FC5F002490469C
:103550008B4682462546DFF87490019430E001A93D
:103560000855641CE4B2022C28D30024264606E049
:10357000384601A9FDF706F868B1761CF6B2C6EB2D
:10358000C60000EB800101EB0900074610A1FCF723
:10359000F9FF0028ECD1C6EBC60000EB800101EB7F
:1035A0000900C01C0090681C41080AEB011010388B
:1035B000102300B21A46594600F00CF86D1CEDB20B
:1035C00018F805000028CAD1BDE8FC9F1E4C000871
:1035D000000000002DE9F04F1F4616460D468246BA
:1035E0000024FFF7B3FE7F1EF81707EB5070012190
:1035F000DFF898B001EBE00743E000203DE000BFBA
:103600000AEB00037F2B36D8E91705EB5171CA107E
:1036100021F00701691A002D03DA521E083112B297
:1036200009B202EB0409B9F1070F0ED8099A04FB9D
:1036300006F802440BEBC91E18F802201EF803C05E
:103640008A404CEA020C0EF803C009F10102072A75
:1036500011D80BEBC91202EB0308099A04FB06FC14
:10366000024498F880301CF80220C1F10801CA40D9
:10367000134388F88030401CC0B2B042C0D3641CF1
:10368000E4B2A742B9DCBDE8F08F0000CC01002015
:103690002DE9F04700241D4690468A4681460A27B8
:1036A000089E14E0291B0A20491EFFF716FFB8FBED
:1036B000F0F0B0FBF7F107FB110204FB069000B23B
:1036C000334651463032FFF721FF641CE4B2AC426E
:1036D000E8D3BDE8F0872DE9F0411E46154688463F
:1036E0000746002408E004FB067000B2334641465A
:1036F000FFF70CFF641CE4B22A5D002AF3D1BDE899
:10370000F081000070B5084D002400212046FFF72D
:10371000EBFE05EBC410802100F029F8641CE4B234
:10372000082CF2D370BD0000CC01002002464FF4FB
:1037300080710148FEF7F1BB000C014002464FF4D6
:1037400000710148FEF7E9BB000C014010B50446CA
:10375000FFF75AFE7820FFF73AFE0020FFF737FE0A
:103760002046FFF734FEBDE81040FFF75CBE70B5A1
:103770000D460646FFF748FE7820FFF728FE40205A
:10378000FFF725FE002404E0305DFFF720FE641CF7
:10379000E4B2AC42F8D3BDE87040FFF744BE00008D
:1037A0002DE9FE439146274A8846054607CA8DE81B
:1037B00007000A24684600F057F83EE000F05EF883
:1037C000B8B3214C54F8030F00BAE17820F0FF00A1
:1037D000084300F086FC1D4E1D4F32463B4600F06C
:1037E00093FC00F04DFC28606068E17900BA20F09D
:1037F000FF00084300F075FC32463B4600F084FCB5
:1038000000F03EFCC8F80000A068E17A00BA20F0A1
:10381000FF00084300F065FC32463B4600F074FCB4
:1038200000F02EFCC9F80000002044F8030CBDE8AD
:10383000FE83FFE70120FEF752F9641EE4B2BDD219
:10384000F5E70000B84F0008940600202D431CEB5C
:10385000E2361A3F012202490248FFF783BA00000C
:103860002D0000203C01002001464FF6FF73082286
:103870000148FFF7BDBA00003C0100200749088855
:10388000002806D0064A1378984203D10020088009
:1038900001207047107000207047000030000020A9
:1038A0003400002038B5704C6079F8B16FA2012166
:1038B0000846FFF749FE6C481430017800914378C0
:1038C00082786CA16F48FCF795FC08236D4A0121B2
:1038D0003220FFF700FF607950B101287AD16A48A1
:1038E0000078002848D0012876D080E067A2DEE783
:1038F00068A210210120FFF727FE0825009502236A
:10390000227910212820FFF7C3FE64A210213C2059
:10391000FFF71AFE00950223E27810216420FFF7DA
:10392000B7FE60A220210120FFF70EFEE06800F044
:10393000E9FC02460B465DA15248FCF75BFC0823FC
:10394000504A20212820FFF7C6FE5AA2302101202C
:10395000FFF7FAFDA06800F0D5FC02460B4657A120
:103960004848FCF747FC01B00823BDE8304030214F
:10397000444A2820FFF7AFBE10231A4620215520C5
:10398000FFF7E4FC4E48007820B101280CD0022853
:1039900014D02CE04BA220210320FFF7D5FD1023EB
:1039A00020211A462B2012E046A220211720FFF7E3
:1039B000CBFD102320211A46032008E041A220213C
:1039C0002B20FFF7C1FD10231A4620211720FFF7F7
:1039D000BDFC0CE047E0FFE7102337222021012047
:1039E000FFF7B4FC37A220215320FFF7ADFD29A239
:1039F00030210120FFF7A8FD227833A12148FCF7F0
:103A0000F9FB08231F4A30212820FFF764FE23A278
:103A100030214120FFF798FD62782BA11948FCF76F
:103A2000E9FB0823174A30216920FFF754FE0E48AE
:103A3000223001780091437882780EA11148FCF77A
:103A4000D9FB08230F4A10210120FFF744FEA0797B
:103A5000012806D01DA2BDE8384010215020FFF7F4
:103A600073BD1BA2F7E738BD00000020C9E8D6C32C
:103A700000000000253032643A253032643A2530A7
:103A8000326400004800002033000020D7D4B6AFD5
:103A900000000000CEC2B6C8A3BA0000CAAAB6C8C9
:103AA000A3BA0000B5E7C1F7A3BA0000252E34661B
:103AB00041000000B5E7D1B9A3BA00002566560061
:103AC00032000020A1FC000025642000B9D80000CD
:103AD000BFAA000070470000024680210148FEF79F
:103AE0001CBA0000000C0140FEB506460146002449
:103AF0000C48FCF7CAFC050011D03046FCF7FBFC73
:103B000028446A4602E01155641CE4B210F8011F13
:103B10002C29F8D11046FCF7ABFC40B2FEBD4FF0AB
:103B2000FF30FEBDCC0500207047FEF701BA30B56E
:103B30008FB028216846FCF7FDFC14210AA8FCF789
:103B4000F9FC01210804CDE90010002402940225AB
:103B50000491CDE907504FF4E01009906846FEF754
:103B60005BFB08B172B6FEE70F20CDE90A054FF402
:103B70008060CDE90C4002210AA80E94FEF770FA8D
:103B8000002801D072B6FEE70FB030BD70470000CC
:103B90000148FEF702BE0000AC000020F0B502684C
:103BA000194B1A4C1A4D4FF08047984205D0B84235
:103BB00003D0A04201D0A84203D122F070064A6887
:103BC0003243984205D0B84203D0A04201D0A84267
:103BD00003D122F44074CA6822434C6922F0800267
:103BE000224302608A68C2620A688262984201D1F6
:103BF00009690163012141610169C90703D00169B4
:103C000021F001010161F0BD002C014000040040E1
:103C10000008004010B5846842EA032224F47F447F
:103C20000A432243826010BD826822F070020A4378
:103C300042F007018160704710B5036A046A24F0FE
:103C400001040462846924F0F00444EA021423F0BD
:103C50000A020A438461026210BD10B5036A046A55
:103C600024F010040462846923F0A00324F4704457
:103C700044EA023243EA01118261016210BD000090
:103C80000A46014664230148FFF7B2B884010020C8
:103C900010B5406A0021C185C184FEF765FE10BDE4
:103CA00001680C3151E8002F22F4907241E80023A2
:103CB000002BF5D10168143151E8002F22F00102E8
:103CC00041E80023002BF5D1016B012909D10168DE
:103CD0000C3151E8002F22F0100241E80023002BA4
:103CE000F5D1202180F8421000210163704708B50A
:103CF00090F84210222901D0022008BD82684FF4BA
:103D000080539A4201D1016921B1816A9A421BD044
:103D10004AB10AE00268816A5268C2F308020A8066
:103D2000816A891C08E0026972B10268526802F077
:103D30007F020A70816A491C8162C18D491E090493
:103D4000090CC18503D01BE002685268F1E70168E5
:103D5000CA6822F02002CA600168CA6822F4807230
:103D6000CA6001684A6922F001024A61202180F894
:103D7000421000214163026B012A03D0FFF700F8D3
:103D8000002008BD016301680C3151E8002F22F0CA
:103D9000100241E80023002BF5D101680A68D20621
:103DA00002D50A6849680091818DFEF7DCFDE7E7DE
:103DB00070B5044600680169E26821F4405111437E
:103DC00001612169A0680843616908432168CA68E4
:103DD00041F20C639A430243CA6020684169A269B8
:103DE00021F44071114341611E492068884202D18B
:103DF000FEF7DCF901E0FEF7C9F900EBC00101EBC9
:103E00000012606864218000B2FBF0F3B3FBF1F3B1
:103E10006FF018067343B2FBF0F5B2FBF0F605EB5A
:103E20008305322303EB0515B5FBF1F5B6FBF1F67F
:103E300005F0F00505EB0615B2FBF0F6B2FBF0F06D
:103E4000B0FBF1F06FF01802504306EB800003EB7B
:103E50000010B0FBF1F0216800F00F0028448860EA
:103E600070BD00000038014081628285C28500215A
:103E70004164222180F84210016921B10168CA68B9
:103E800042F48072CA6001684A6942F001024A61E4
:103E90000068C16841F02001C160002070472DE931
:103EA000F843984617460D460446089E24E0701CC9
:103EB00022D0FEF737F8A0EB0800B0421AD8CEB1F6
:103EC0002068C168490717D5802D15D0402D13D023
:103ED0000168C94309070FD40168002540680090B4
:103EE0002046FFF7DDFE0820606484F84050012082
:103EF000BDE8F8830320FBE72068006835EA00008E
:103F000004D00020B842D2D00020F1E70120F9E728
:103F10000148FEF72BBD0000F40000200148FEF729
:103F200025BD00003C010020FEE7490050EAC12009
:103F300018BF04204A0D18BF40F0010040F2FF7284
:103F4000B2EB515F08BF40F00200012808BF052016
:103F500070470907090E002804DB00F1E02080F813
:103F60000014704700F00F0000F1E02080F8141DED
:103F7000704730380A2801D201207047002070476E
:103F8000FDF7DEFFFFF7D3FDFFF7E6F8FFF774F963
:103F9000FFF7AAF9FFF73CF9FFF78AF9FFF74FFAA5
:103FA000FDF794FCFFF700F8FFF754FC0120FFF742
:103FB00093FD6420FDF7AEFDFDF74EFBFEF7FAFF23
:103FC0000948FDF7DFFC08491039481EFDF742FC9F
:103FD000FFF768FCFFF796FB034A121F111F081F2B
:103FE000FFF7DEFBE5E70000140000201FB54020CE
:103FF0000090002001900220029003200390694667
:104000000148FDF795FE1FBD000801401FB5402087
:104010000090012001900320039069460148FDF7BC
:1040200087FE1FBD0008014010B500290AD008789E
:10403000002807D005487844FCF7A4FA002801D0EE
:10404000002010BD0248784410BD00007A10000026
:104050007210000010B500290AD00878002807D097
:1040600005487844FCF78EFA002801D0002010BDE6
:104070000248784410BD00006A1000006210000081
:1040800021F00042A2F16052B2F5801F01F000431E
:1040900028BFD2F17F6C0BD95FEA001C43EAC20251
:1040A00042EB507018BF704728BF20F001007047E6
:1040B000B2F5801FBCBF184670474FEA410C1CF593
:1040C000001F02D2084600F08EB970B500F0C6F8A5
:1040D00000000089FFF7F6BF4FF00040A0F5800018
:1040E0007047B0FA80F310FA03F10AD0C3F11D0350
:1040F00003F580634FEA41504FEA035202EBD121AE
:1041000070474FF000007047DFF848C170B51CEAF7
:10411000111E1EBF1CEA13159EEA0C0F95EA0C0F28
:1041200000F06F8081EA030423EA4C134EEAD47E48
:1041300021EA4C1141F4801143F48013AE44A1FBF9
:10414000024CA0FB0365AEF17F7E361955EB0C05E2
:10415000A1FB034C4CF10003A0FB021C16EB0C0668
:10416000654153F10003094218BF46F0010613F4FC
:10417000007F0BD14FEA03314FEA0530340341EAA7
:10418000155140EA16506FF003020AE04FEAC321CE
:104190004FEAC520F40241EA555140EA56506FF00B
:1041A000020202EB2E4201EB025585EACE710AD0E3
:1041B0005FEA440C18BF24F0004450F1000041F1C4
:1041C000000120EAD47040F2FE7C624500D270BD4E
:1041D000A84214BF4FF080444FF04044002E08BF67
:1041E0000024BEF1806FA8BFA1F1C041BDE87040BE
:1041F00080F282804FF0000001F1C04101F00041E7
:1042000070479EEA0C0F0CEA131518BF95EA0C0FC5
:1042100006D04FF0000081EA030E0EF0004170BDA1
:1042200000F01CF88900013E00F007B800F009B862
:104230004FEA430C5FEA5C5C08D081EA030100F0BE
:104240005BB84FEA410C5FEA5C5CF6D14FF00000CE
:10425000014970470000FF070000F87F0EF1020ED1
:104260002EF0030E5EF8046B364205D4012A43EBB0
:10427000030515F5001F12D8012841EB010C1CF5B0
:10428000001F0CD80ED14FEAD17C15F5001F0CEBA6
:104290004C0C0CF1020C08BF4CEBD37C04E04FF04B
:1042A000080C01E04FEAD37C0CEB4C0526FA05F62E
:1042B00006F00706B6F1040C06D20EEB860CBDE83C
:1042C00070404CF0010C6047DFE80CF0090B020273
:1042D0004FF000414FF00000A1F5002170BD1946DC
:1042E0001046012851EB010418BFD4F5001484BF17
:1042F000002001F0004170BD0808A0F500114FEA50
:104300003101704743004FEAD30C4FEA3C0C434065
:104310001FBF40070CF1605113F0FE4F70471CF0B7
:10432000006F03D100200CF0004170470CF00043F7
:1043300043EA507010B540EACC0000F00EF800BF20
:10434000000000924FEA0001FFF7D6BF4FF0004196
:104350004FF00000A1F5002170470EF1020E2EF083
:10436000030E5EF8044B244204D44FEA4102B2F13A
:104370007F4F11D84FEA4003B3F17F4F0CD80ED1D5
:104380004FEAD07CB2F17F4F0CEB4C0C0CF1020CDD
:1043900008BF4CEBD17C04E04FF0080C01E04FEA81
:1043A000D17C0CEB4C0324FA03F404F00704B4F1C1
:1043B000040C06D20EEB840CBDE810404CF0010C4E
:1043C0006047DFE80CF0070802024FF00040A0F55C
:1043D000800010BD0846420018BFD2F1807288BF2D
:1043E00000F0004010BDFF2141EAD050C0057047E9
:1043F000FCF742BA000000000000000000000000CE
:1044000000000000000000F8000000000000003381
:104410003000000000160E00160E00000000000024
:104420000000000040C07840C0784000043F040411
:104430003F040400007088FC08300000001820FFD2
:10444000211E0000F008F000E018000000211C030D
:104450001E211E0000F00888700000001E21232489
:1044600019272110000000160E00000000000000B7
:1044700000000000000000E0180402000000000737
:104480001820400000020418E0000000004020183E
:1044900007000000404080F0804040000202010F11
:1044A00001020200000000F0000000000101011FF5
:1044B00001010100000000000000000000B07000D9
:1044C00000000000000000000000000000010101E9
:1044D0000101010100000000000000000030300078
:1044E0000000000000000000806018040060180652
:1044F0000100000000E010080810E000000F10208C
:1045000020100F00001010F8000000000020203FD5
:10451000202000000070080808887000003028245F
:104520002221300000300888884830000018202000
:1045300020110E000000C02010F800000007042425
:10454000243F240000F8088888080800001921206A
:1045500020110E0000E0108888180000000F1120C4
:1045600020110E0000380808C83808000000003F7D
:10457000000000000070880808887000001C2221DC
:1045800021221C0000E010080810E0000000312289
:1045900022110F00000000C0C00000000000003029
:1045A00030000000000000C0C0000000000080B02B
:1045B000700000000000804020100800000102048C
:1045C00008102000404040404040400004040404E3
:1045D000040404000008102040800000002010089F
:1045E00004020100007048080808F00000000030D4
:1045F00036010000C030C828E810E0000718272462
:1046000023140B000000C038E0000000203C23020F
:104610000227382008F8888888700000203F202072
:1046200020110E00C03008080808380007182020A4
:104630002010080008F808080810E000203F20209B
:1046400020100F0008F88888E8081000203F20207C
:104650002320180008F88888E8081000203F200070
:1046600003000000C03008080838000007182020A8
:10467000221E020008F808000008F808203F210167
:1046800001213F20000808F8080800000020203F12
:104690002020000000000808F8080800C080808082
:1046A0007F00000008F888C028180800203F20017B
:1046B0002638200008F8080000000000203F2020D5
:1046C0002020300008F8F800F8F80800203F003FEC
:1046D000003F200008F830C00008F808203F200004
:1046E00007183F00E01008080810E0000F10202015
:1046F00020100F0008F808080808F000203F2101EA
:1047000001010000E01008080810E0000F18242440
:1047100038504F0008F8888888887000203F2000B3
:10472000030C302000708808080838000038202169
:1047300021221C00180808F8080818000000203F73
:104740002000000008F808000008F808001F2020DA
:1047500020201F000878880000C8380800000738AB
:104760000E010000F80800F80008F800033C0700FC
:10477000073C0300081868808068180820302C0364
:10478000032C30200838C800C83808000000203F3B
:104790002000000010080808C8380800203826212A
:1047A00020201800000000FE020202000000007F2E
:1047B00040404000000C30C000000000000000013C
:1047C0000638C00000020202FE0000000040404027
:1047D0007F000000002010080408102000000000E6
:1047E00000000000000000000000000080808080C9
:1047F00080808080000204080000000000000000AB
:104800000000000000008080808000000019242249
:1048100022223F2008F8008080000000003F112085
:1048200020110E000000008080800000000E11208A
:1048300020201100000000808088F800000E112068
:1048400020103F200000808080800000001F222276
:1048500022221300008080F0888888180020203FE2
:10486000202000000000808080808000006B9494F5
:104870009493600008F8008080800000203F2100B1
:1048800000203F2000809898000000000020203F7A
:1048900020200000000000809898000000C0808068
:1048A000807F000008F8000080808000203F240204
:1048B0002D302000000808F8000000000020203FF4
:1048C000202000008080808080808000203F2000A9
:1048D0003F20003F008080008080000000203F21BA
:1048E00000203F200000808080800000001F2020EA
:1048F00020201F00808000808000000080FFA12019
:1049000020110E000000008080808000000E112029
:1049100020A0FF80808080008080800020203F21B8
:10492000200001000000808080808000003324246B
:1049300024241900008080E0808000000000001F17
:10494000202000008080000000808000001F2020C8
:1049500020103F20808080000080808000010E3089
:104960000806010080800080008080800F300C03EA
:104970000C300F0000808000808080000020312EED
:104980000E312000808080000080808080818E70C9
:104990001806010000808080808080000021302C7B
:1049A0002221300000000000807C02020000000094
:1049B000003F404000000000FF0000000000000039
:1049C000FF0000000002027C800000000040403F29
:1049D00000000000008040408000008000000000D7
:1049E000000101000000000000000000002F000096
:1049F00000000700070000147F147F1400242A7FA2
:104A00002A12002313086462003649552250000020
:104A10000007000000001C224100000041221C0091
:104A20000014083E08140008083E0808000000A012
:104A3000600000080808080800006060000000200E
:104A400010080402003E5149453E0000427F4000EC
:104A5000004261514946002141454B310018141272
:104A60007F10002745454539003C4A49493000013F
:104A70007109050300364949493600064949291E8E
:104A800000003636000000005636000000081422F0
:104A900041000014141414140000412214080002F0
:104AA00001510906003E4955592E007C1211127C15
:104AB000007F49494936003E41414122007F414142
:104AC000221C007F49494941007F09090901003E34
:104AD0004149497A007F0808087F0000417F410072
:104AE000002040413F01007F08142241007F4040E8
:104AF0004040007F020C027F007F0408107F003ED0
:104B00004141413E007F09090906003E4151215EB5
:104B1000007F091929460046494949310001017FB2
:104B20000101003F4040403F001F2040201F003F48
:104B30004038403F006314081463000708700807FA
:104B400000615149454300007F41410000020408D3
:104B50001020000041417F000004020102040040D7
:104B600040404040000001020400002054545478AA
:104B7000007F4844443800384444442000384444CA
:104B8000487F00385454541800087E090102001868
:104B9000A4A4A47C007F080404780000447D4000A5
:104BA000004080847D00007F102844000000417F89
:104BB0004000007C04180478007C08040478003865
:104BC0004444443800FC242424180018242418FCED
:104BD000007C0804040800485454542000043F4456
:104BE0004020003C4040207C001C2040201C003C19
:104BF0004030403C004428102844001CA0A0A07C69
:104C0000004464544C440000087F41000000007FD1
:104C100000000000417F0800000804081008A3AC51
:104C20000000000000000000000000000000000084
:104C300000000058380000000000000000000000E4
:104C400000A1A30000000000000000000000000020
:104C500000000000000018242418000000000000DC
:104C600000000000C9E800404042CC0040A09E8205
:104C700082829EA02020000000003F908840432CAC
:104C800010284641808000D6C300001715D555571F
:104C9000557D555755D5151700004040407F555557
:104CA00055555555557F40404000A1FC000000007F
:104CB0000040301CFF1C30400000000000000000DD
:104CC00000000000FF0000000000000000CEC20055
:104CD0001060028C0000FE9292929292FE00000000
:104CE00004047E01407E42427E427E42427E40007B
:104CF000B6C8000000FC242424FC252624FC24241F
:104D000024040040308F80844C55252525554C8047
:104D1000808000CAAA001060028C00FE92929292DB
:104D20009292FE00000004047E014448507F4040FF
:104D30007F5048444000B6C8000000FC242424FCF6
:104D4000252624FC242424040040308F80844C55E4
:104D5000252525554C80808000A3BA000000000066
:104D600000000000000000000000000000003636D7
:104D7000000000000000000000000000B5E7000097
:104D800000F888888888FF88888888F800000000F4
:104D9000001F080808087F888888889F80F000D155
:104DA000B9000000FE0282828282FA8282828282BE
:104DB000020080601F40404040407F4040445840D7
:104DC0004000B5E7000000F888888888FF88888858
:104DD00088F800000000001F080808087F888888FD
:104DE000889F80F000C1F7001060028C004464547A
:104DF0004D46445464C4040004047E0180403E00D7
:104E000000FE00007E80E000B9A600080808F8084F
:104E100008081010FF101010F000001030101F08CC
:104E20008848300E014080403F0000C2CA00001494
:104E3000A4442434AD6624940444A4140000080956
:104E40000808090909FD09090B0808090800B6A89E
:104E500000100C4444444445C64444444444140CA7
:104E6000008040201E2040407F4444444444404051
:104E700000CAB10000FC848484FC001010101010E3
:104E8000FF101000003F1010103F0000010640808E
:104E90007F000000CAC7000000007F494949494916
:104EA00049497F000000008141211D214181FF8986
:104EB00089898989818100B7F100000282824222BA
:104EC00012FA0622224242820000010100FC444400
:104ED0004445444444FC00000100D7D400000000D5
:104EE000F8888C8A89888888F80000000000000013
:104EF000FF44444444444444FF00000000B6AF0073
:104F00004044C4444444401010FF101010F000000E
:104F1000103C131014B840300E014080403F000098
:104F2000D4B4001060028C00FE02F2525A56525263
:104F3000F2020004047E41300F201349817F0109F1
:104F4000132000BFAA0080828282FE828282828237
:104F5000FE8282828000008040300F00000000004E
:104F6000FF0000000000B9D800000010111610105A
:104F7000F010101413100000008181414121110D27
:104F8000030D11214141818100000000FF01010159
:104F90003109090909897101010101FFFF80808040
:104FA0008080809681808080808080FFAA080000B9
:104FB000AA0000000000000001030048000385DD96
:104FC00000010202030405060708090A0B0C0D0E76
:104FD0000F10100000000000000000010203040692
:104FE0000708090000000001020304040000080093
:104FF000000000000000020001000010024000005C
:10500000000000A00000000005400000000000C8F3
:10501000000000000C4000000000409C0000000068
:10502000194000000020BCBE000000003440000019
:10503000BFC91B8E00000004B5400000504BCFD00C
:105040006607E2CF010000006C4100003E8251AAD9
:10505000DFEEA73401000000D9420000DCB5A0E279
:105060003A301F97FFFFFFFFB4450000FD25A0C8A1
:10507000E9A3C14FFFFFFFFFFF3F000000000080DA
:1050800000000000FF3F0000000000800000000062
:10509000DC51000800000020480000002801000842
:1050A0002452000848000020A00D00004401000820
:1050B0001C00000043000000F8FFFFFF0C00000090
:1050C0000E0000000F0000002E0000001001000084
:1050D00043000000F8FFFFFF0040404040404040D8
:1050E00040404141414141404040404040404040BB
:1050F000404040404040404040050202020202025F
:1051000002020202020202020220202020202020AD
:1051100020202002020202020202909090909090C1
:10512000101010101010101010101010101010107F
:1051300010101010020202020202888888888888F3
:1051400008080808080808080808080808080808DF
:1051500008080808020202024000000000000000E7
:10516000000000000000000000000000000000003F
:10517000000000000000000000000000000000002F
:10518000000000000000000000000000000000001F
:10519000000000000000000000000000000000000F
:1051A00000000000000000000000000000000000FF
:1051B00000000000000000000000000000000000EF
:1051C00000000000000000000000000000000000DF
:1051D0000000000000000000000000002850000057
:1051E00000000000000000000000000000000000BF
:1051F00000000000000000000000000000000000AF
:10520000000000000000000000000000000000009E
:10521000000000000100000010000000000000007D
:0452200000127A00FE
:04000005080000ED02
:00000001FF
